:020000040800F2
:10000000FFFF0120795F0008455B0008495B00089D
:100010004D5B0008515B0008555B000800000000C4
:10002000000000000000000000000000595B000814
:100030005D5B000800000000615B0008655B000874
:10004000C95F0008C95F0008C95F0008C95F0008F0
:10005000C95F0008C95F00087D5B0008855B000878
:10006000C95F0008C95F0008C95F0008C95F0008D0
:10007000C95F0008C95F0008995B0008C95F0008F4
:10008000C95F0008C95F0008C95F0008C95F0008B0
:10009000C95F0008C95F0008C95F0008C95F0008A0
:1000A000C95F0008C95F0008C95F0008C95F000890
:1000B000C95F0008C95F0008A55B0008C95F0008A8
:1000C000C95F0008C95F0008C95F0008C95F000870
:1000D000C95F0008C95F0008C95F0008C95F000860
:1000E000C95F0008C95F0008C95F0008C95F000850
:1000F000C95F0008C95F0008C95F00088D5B000880
:10010000C95F0008C95F0008C95F0008C95F00082F
:10011000C95F0008C95F0008C95F0008C95F00081F
:10012000C95F0008C95F0008C95F0008C95F00080F
:10013000C95F0008C95F0008C95F0008C95F0008FF
:10014000C95F0008C95F0008C95F0008A95B000813
:10015000C95F0008C95F0008C95F0008C95F0008DF
:10016000C95F0008C95F0008C95F0008C95F0008CF
:10017000C95F0008C95F0008C95F000800000000EF
:08018000C95F0008C95F000817
:1001900010B5054C237833B9044B13B10448AFF3C1
:1001A00000800123237010BDE0000020000000004B
:1001B00024E5000808B5034B1BB103490348AFF31E
:1001C000008008BD00000000E400002024E50008D5
:1001D00001F0FF01102A2BDB10F0070F08D010F8F8
:1001E000013B013A8B422DD010F0070F42B3F6D1FC
:1001F000F0B441EA012141EA014122F007047FF015
:1002000000070023F0E80256083C85EA010586EA6B
:10021000010685FA47F5A3FA87F586FA47F6A5FAA7
:1002200087F68EB9EED1F0BC01F0FF0102F00702B3
:1002300032B110F8013B013A83EA010313B1F8D15E
:100240000020704701387047002D06BF354603383F
:10025000073815F0010F07D1013015F4807F02BF78
:10026000013015F4C03F0130F0BC0138704700BFC9
:1002700070B54FF0FF0C4CF4E06C1CEA11541DBF3C
:100280001CEA135594EA0C0F95EA0C0F00F0DEF807
:100290002C4481EA030621EA4C5123EA4C5350EAEC
:1002A000013518BF52EA033541F4801143F480133D
:1002B00038D0A0FB02CE4FF00005E1FB02E506F0CE
:1002C0000042E0FB03E54FF00006E1FB03569CF023
:1002D000000F18BF4EF0010EA4F1FF04B6F5007F29
:1002E00064F5407404D25FEA4E0E6D4146EB06069B
:1002F00042EAC62141EA55514FEAC52040EA5E5024
:100300004FEACE2EB4F1FD0C88BFBCF5E06F1ED8CD
:10031000BEF1004F08BF5FEA500E50F1000041EB04
:10032000045170BD06F0004646EA010140EA0200B1
:1003300081EA0301B4EB5C04C2BFD4EB0C0541EAD3
:10034000045170BD41F480114FF0000E013C00F3E8
:10035000AB8014F1360FDEBF002001F0004170BD0C
:10036000C4F10004203C35DA0C341BDC04F1140425
:10037000C4F1200500FA05F320FA04F001FA05F2B1
:1003800040EA020001F0004221F0004110EBD3707E
:1003900021FA04F642EB06015EEA430E08BF20EAAA
:1003A000D37070BDC4F10C04C4F1200500FA04F34D
:1003B00020FA05F001FA04F240EA020001F00041DF
:1003C00010EBD37041F100015EEA430E08BF20EA52
:1003D000D37070BDC4F1200500FA05F24EEA020E9A
:1003E00020FA04F301FA05F243EA020321FA04F0C9
:1003F00001F0004121FA04F220EA020000EBD37080
:100400005EEA430E08BF20EAD37070BD94F0000F7F
:100410000FD101F00046400041EB010111F4801FB3
:1004200008BF013CF7D041EA060195F0000F18BF64
:10043000704703F00046520043EB030313F4801FA0
:1004400008BF013DF7D043EA0603704794EA0C0F5A
:100450000CEA135518BF95EA0C0F0CD050EA410670
:1004600018BF52EA4306D1D181EA030101F00041ED
:100470004FF0000070BD50EA410606BF1046194615
:1004800052EA430619D094EA0C0F02D150EA013621
:1004900013D195EA0C0F05D152EA03361CBF104662
:1004A00019460AD181EA030101F0004141F0FE4101
:1004B00041F470014FF0000070BD41F0FE4141F485
:1004C000780170BD81F0004102E000BF83F000437D
:1004D00030B54FEA41044FEA430594EA050F08BFDF
:1004E00090EA020F1FBF54EA000C55EA020C7FEAA3
:1004F000645C7FEA655C00F0E2804FEA5454D4EB20
:100500005555B8BF6D420CDD2C4480EA020281EAE9
:10051000030382EA000083EA010180EA020281EA21
:100520000303362D88BF30BD11F0004F4FEA013173
:100530004FF4801C4CEA113102D0404261EB410182
:1005400013F0004F4FEA03334CEA133302D0524208
:1005500063EB430394EA050F00F0A780A4F10104C4
:10056000D5F1200E0DDB02FA0EFC22FA05F28018FE
:1005700041F1000103FA0EF2801843FA05F35941E4
:100580000EE0A5F120050EF1200E012A03FA0EFC63
:1005900028BF4CF0020C43FA05F3C01851EBE3718D
:1005A00001F0004507D54FF0000EDCF1000C7EEBAA
:1005B00000006EEB0101B1F5801F1BD3B1F5001FE8
:1005C0000CD349085FEA30004FEA3C0C04F1010407
:1005D0004FEA445212F5800F80F09A80BCF1004F30
:1005E00008BF5FEA500C50F1000041EB045141EAB2
:1005F000050130BD5FEA4C0C404141EB0101013C7B
:1006000028BFB1F5801FE9D291F0000F04BF014669
:100610000020B1FA81F308BF2033A3F10B03B3F13B
:1006200020020CDA0C3208DD02F1140CC2F10C02CB
:1006300001FA0CF021FA02F10CE002F11402D8BF29
:10064000C2F1200C01FA02F120FA0CFCDCBF41EAF5
:100650000C019040E41AA2BF01EB0451294330BDC4
:100660006FEA04041F3C1CDA0C340EDC04F11404A1
:10067000C4F1200220FA04F001FA02F340EA030078
:1006800021FA04F345EA030130BDC4F10C04C4F1BE
:10069000200220FA02F001FA04F340EA030029469E
:1006A00030BD21FA04F0294630BD94F0000F83F4E8
:1006B000801306BF81F480110134013D4EE77FEACB
:1006C000645C18BF7FEA655C29D094EA050F08BF17
:1006D00090EA020F05D054EA000C04BF19461046F8
:1006E00030BD91EA030F1EBF0021002030BD5FEA3C
:1006F000545C05D14000494128BF41F0004130BD64
:1007000014F580043CBF01F5801130BD01F00045B7
:1007100045F0FE4141F470014FF0000030BD7FEA2A
:10072000645C1ABF194610467FEA655C1CBF0B4625
:10073000024650EA013406BF52EA033591EA030F3C
:1007400041F4002130BD00BF90F0000F04BF002134
:10075000704730B54FF4806404F132044FF0000567
:100760004FF0000150E700BF90F0000F04BF0021E0
:10077000704730B54FF4806404F1320410F0004546
:1007800048BF40424FF000013EE700BF42004FEA41
:10079000E2014FEA31014FEA02701FBF12F07F43BE
:1007A00093F07F4F81F06051704732F07F4208BF75
:1007B000704793F07F4F04BF41F40021704730B57C
:1007C0004FF4607401F0004521F000411CE700BFC8
:1007D00050EA010208BF704730B54FF000050AE04B
:1007E00050EA010208BF704730B511F0004502D54C
:1007F000404261EB41014FF4806404F132045FEA4E
:10080000915C3FF4D8AE4FF003025FEADC0C18BFF6
:1008100003325FEADC0C18BF033202EBDC02C2F1E8
:10082000200300FA03FC20FA02F001FA03FE40EA7A
:100830000E0021FA02F11444BDE600BF4FF0FF3C68
:1008400006E000BF4FF0010C02E000BF4FF0010CCA
:100850004DF804CD4FEA410C7FEA6C5C4FEA430C43
:1008600018BF7FEA6C5C1BD001B050EA410C0CBF92
:1008700052EA430C91EA030F02BF90EA020F0020F4
:10088000704710F1000F91EA030F58BF994208BF5B
:1008900090422CBFD8176FEAE37040F00100704718
:1008A0004FEA410C7FEA6C5C02D150EA013C07D16F
:1008B0004FEA430C7FEA6C5CD6D152EA033CD3D0BA
:1008C0005DF8040B704700BF8446104662468C46B4
:1008D0001946634600E000BF01B5FFF7B7FF0028E7
:1008E00048BF10F1000F01BD4DF808EDFFF7F4FF10
:1008F0000CBF012000205DF808FB00BF4DF808ED9B
:10090000FFF7EAFF34BF012000205DF808FB00BFBD
:100910004DF808EDFFF7E0FF94BF012000205DF8DF
:1009200008FB00BF4DF808EDFFF7CEFF94BF012094
:1009300000205DF808FB00BF4DF808EDFFF7C4FF8D
:1009400034BF012000205DF808FB00BF4FEA4102E0
:10095000B2F1E04324BFB3F5001CDCF1FE5C0DD91D
:1009600001F0004C4FEAC0024CEA5070B2F1004F67
:1009700040EB830008BF20F00100704711F0804F6A
:1009800021D113F13872BCBF01F00040704741F42F
:1009900080114FEA5252C2F11802C2F1200C10FA33
:1009A0000CF320FA02F018BF40F001004FEAC12317
:1009B0004FEAD32303FA0CFC40EA0C0023FA02F3BB
:1009C0004FEA4303CCE77FEA625307D150EA013391
:1009D0001EBF4FF0FE4040F44000704701F0004061
:1009E00040F0FE4040F40000704700BF08B57F2093
:1009F00004F0E6FC03F0D0FF02F068FB03F0CCFF4C
:100A000002F09EFB03F0C8FF02F08AFB7F2004F097
:100A1000EDFC03F0C1FF02F005F803F0BDFF02F0AA
:100A200021F803F0B9FF02F03DF803F0B5FF02F042
:100A300065F803F0B1FF02F04BF803F0ADFF02F0F0
:100A400073F803F0A9FF02F087F87F2004F0D8FCC8
:100A500003F0A2FF03F080FE03F09EFF03F096FE7A
:100A600003F09AFFBDE8084003F0A0BE08B503F00C
:100A700093FF04F00FFA03F08FFF04F08BFA03F0FA
:100A80008BFF04F047FA03F087FF04F06BFA03F0E2
:100A900083FF04F071FA03F07FFF04F017FA0BF004
:100AA000EBFC524B83FB0023A3EBE07303EB43030C
:100AB000C01A40B204F03CFB03F06EFF04F0AAFC45
:100AC00004F05CFB0E285ED00D287DD003F064FF9F
:100AD00003F0EAFF03F060FF04F02EF803F05CFF80
:100AE00004F04AF803F058FF04F058F803F054FFFC
:100AF00004F092FB03F050FF04F09EFB03F04CFF68
:100B000004F062F803F048FF04F0A6F803F044FF95
:100B100004F0C2F803F040FF04F0D0F803F03CFF0B
:100B200004F09AFB03F038FF04F0A6FB03F034FF57
:100B300004F052FCDFED2E0A9FED2E0A03F010FFA9
:100B40000CF076FCC0B200F047FB03F025FF00F08C
:100B50005FFB03F021FF00F083FB03F01DFF00F0BB
:100B60008FFB03F019FF04F097FB03F015FF04F06F
:100B7000A3FB03F011FF04F02FFB03F00DFFBDE812
:100B8000084004F039BB03F007FF04F065FC03F0F4
:100B900003FF04F067FC03F0FFFE04F069FC03F0C0
:100BA000FBFE04F097FC03F0F7FE04F099FC03F061
:100BB000F3FE04F0A7FC03F0EFFE04F0C9FC03F021
:100BC000EBFE04F0D7FC81E703F0E6FE02F022FB27
:100BD00003F0E2FE02F03AFB03F0DEFE02F05AFB05
:100BE00003F0DAFE02F07EFE70E700BF5655555561
:100BF00033334B410000000010B50B4C2378022B1F
:100C000009D0042B00D010BD00232370BDE8104094
:100C100006480BF091BA0649044840220BF0B0FA9E
:100C20000323237010BD00BF41E6012044E60120EC
:100C3000840100207F2800D07047FFF7D7BE00BF97
:100C40007F2800D07047FFF711BF00BF034B044857
:100C50000021802219700BF052BD00BFFC00002063
:100C6000000100202DE9F84F9E480BF07BFAC0F3FD
:100C70008F00002800F0B8809B4C9C4FDFF88092DA
:100C8000DFF87882431E9BB2261D06EB830614F81C
:100C9000043C14F8035C14F802BC14F801AC002BFB
:100CA00040F0A480397805F0F00329B9802B00F0DA
:100CB0008580902B00F09F80B02B40F091800BF14D
:100CC000FF3BBBF1760F00F28B80DFE81BF0EE00FC
:100CD000D201CE01CA01C601C2018900FE00020193
:100CE000890089000601B201AE011802EE0020025F
:100CF0001C02560152014E014A01460142013E01C9
:100D00003A01360132012E012A0126018900200113
:100D10001B01DA0130022C02F200F8009E013D02B4
:100D2000390235028900890089008900890089001B
:100D3000AA01A601A201FE00020106012802240266
:100D40004102140210020C0208020402890000028F
:100D5000FC01F801F401F001890089008900890093
:100D600089008900EC01E801890089008900F2000E
:100D7000F800890089009A01960192018E018A018A
:100D8000860182017E017A01760172016E016A019B
:100D900089008900890089006601620189005E017D
:100DA0005A018900E001E401B60189008900890047
:100DB000890089008900BA01BE01D60198F8003087
:100DC00009F80B10013B5BB2002B88F80030454658
:100DD00031DD474A92F90030ABF1150B9B4557D0F6
:100DE0000434A6427FF453AFBDE8F88F08210320F6
:100DF00004F074FF56E74FFA8AF23E4B002A1A704D
:100E000023DDBBF1140F88BFABF11501384B3A4815
:100E100088BF49B2197000F0C9F9384A38491378C7
:100E2000043401331370A6424FF0010301F80B3074
:100E30007FF42DAFD8E73048043400F0C1F9002327
:100E4000A6422B707FF423AFCEE72C4D2C482B7895
:100E500000F80B10013B5BB2002B2B70EBDD244A3A
:100E600092F90030ABF1150B9B45B9D1034603E075
:100E70000131802900F0708113F8010B0128F7D1AE
:100E800015394BB213700434A6427FF400AFABE7C0
:100E90001B4B03E00131802900F05E8113F8010B48
:100EA0000128F7D115394BB2ECE7504604F0F4F9BC
:100EB00096E7BAF17F0F93D1FFF798FD90E7BAF16B
:100EC0007F0F8DD1FFF7D2FD8AE7504603F0ECFD8E
:100ED00086E7504603F030FE82E7504603F04CFEB2
:100EE0007EE700BF44E60120880100200C000020BE
:100EF000810100208001002000000010FC00002083
:100F0000000100205146022003F0FCFF68E7514633
:100F10006FF0010003F0F6FF62E7504604F0DCF9E1
:100F20005EE7504601F018FE5AE7504601F0FCFD1E
:100F300056E7504604F05AFA52E7504604F04CFA8D
:100F40004EE7504604F00EF84AE7504604F014F815
:100F500046E7504604F054FA42E7504604F030FAAF
:100F60003EE7504601F07EFD3AE7504601F0B0FD05
:100F700036E7504601F0C2FD32E7504601F092FDDF
:100F80002EE7504604F078F92AE7504604F064F959
:100F900026E7504603F0FAFB22E7504603F0DCFB5D
:100FA0001EE7504604F0E6FA1AE7504604F0AAFAA3
:100FB00016E7504604F08EFA12E7504604F052FA53
:100FC0000EE7504603F07AFE0AE7504603F064FE4F
:100FD00006E7504603F040FE02E7504603F0F4FDFA
:100FE000FEE6504603F0E2FBFAE6504604F0B0FAA3
:100FF000F6E6504604F074FAF2E6504604F038FA89
:10100000EEE6504604F028FAEAE6504602F03EF8D2
:10101000E6E6504600F034F9E2E6504600F020F9EA
:10102000DEE6504600F0F4F8DAE6504602F04EF8FC
:10103000D6E6504600F0D6F9D2E6504604F0A0FAC3
:10104000CEE6504604F036FACAE6504604F070FA8E
:10105000C6E6504604F0DEF9C2E6504603F05AFFF9
:10106000BEE6504603F096FFBAE6504603F012FF84
:10107000B6E6504602F064F8B2E6504604F090FA44
:10108000AEE651466FF0060003F03CFFA8E650467E
:1010900004F000FAA4E6504604F03AFAA0E65046FE
:1010A00004F05CF89CE6504604F048F898E6504698
:1010B00004F074F894E6504604F02AFB90E650469B
:1010C00004F062F88CE6504604F0B6F888E6504624
:1010D00004F0A2F884E6504604F044F980E6504655
:1010E00002F000FC7CE6504602F0D4F878E6504668
:1010F00002F0ACF874E6504602F08CF870E6504608
:1011000002F00EF86CE6504601F08CFC68E65046A2
:1011100004F0D2F864E6504604F05EF860E650460B
:1011200003F03CFD5CE6504601F01AFC58E65146DF
:10113000072003F0E7FE53E6504600F04DF84FE677
:10114000504603F0C3FE4BE6504601F07FFF47E6F2
:10115000504604F051F843E66B23137093E600BF4A
:1011600008B5FFF77FFDBDE808400249024840226C
:101170000BF006B88401002044E6012000B5094ABE
:10118000DFF824C00260002100234FF07C5EC0E93C
:101190000833C0F808E0816101614260C0F80CC00A
:1011A0005DF804FB6F12833A0AD7233C00230268E0
:1011B00043624FF07E518161C2610362704700BF9C
:1011C00010B4C268C261002400210323446281611B
:1011D0005DF8044B0362704707EE100A9FED076A43
:1011E000DFED077ADFED076A074BB8EEC77AE7EE67
:1011F000067A86EEA77A83ED007A70470402013CF6
:1012000017B7D138C637BE37000000100000000005
:1012100010B5FFF7A9FA0EA3D3E90023FFF728F8CA
:101220000DA3D3E90023FFF753F9FFF78FFBDFEDA1
:10123000066A064C07EE100AC6EE877AC4ED017AFC
:1012400010BD00BFAFF30080C637BE3700000010EE
:1012500040D39C0134CD593F000000E0E2361A3FF4
:1012600007EE900A9FED047A044BF8EEE77A67EEFA
:10127000877AC3ED027A70470402013C0000001037
:1012800006EE900A094B9FED0A6ADFED0A7A93EDAC
:10129000027AF8EEE66AE6EE867ADFED076A27EE76
:1012A000267AC7EE276AC3ED036A70470000001074
:1012B0000402813B17B7D138C637BE37D0E90823BF
:1012C0000133012A90ED040A43622CD0032A1AD07C
:1012D000B2B990ED077AD0ED067A30EE070AB4EE97
:1012E000E70AF1EE10FA80ED040A09DB4168826832
:1012F000C0ED047A0123B0EE670AC1618261036226
:1013000080ED050A7047D0ED037A9FED177A30EE35
:10131000670AB4EEC70AF1EE10FA1CD980ED040A90
:1013200080ED050A704790ED017AD0ED027A30EE3B
:10133000470AB4EEE70AF1EE10FA80ED040ADFD8AE
:1013400000220223B0EE670AC0ED047AC261036294
:1013500080ED050A70470423B0EE470A80ED047A59
:10136000036280ED050A70470000000008B54AF6E8
:1013700044424621042005F097F930B9BDE8084001
:1013800006484FF47A6105F0BFB902F089F9BDE86B
:10139000084002484FF47A6105F0B6B9C401002054
:1013A00008B5012005F002F804484FF4FA7104F082
:1013B00099FABDE80840012004F0EABFC40100200A
:1013C00008B5012004F0F2FF04484FF4FA7104F06C
:1013D00089FABDE80840012004F0DABF9409002032
:1013E000FEE700BF07EE900A9FED087A084BF8EE83
:1013F000E77A82B067EE877AFCEEE77ACDED017A84
:101400009DF80400187002B005F09CB92693493F7E
:10141000000000204FF0010C094A80F848C5002365
:1014200000214FF07E5CC260C0F804C0036103621B
:10143000C0F844154FF4A46224300BF060B900BF2B
:101440000000DC43000000002DE9F0432DED068B89
:1014500090ED03AADFEDBE8AD0ED049A90ED068AE6
:101460006AEE288A044683B018EE900AFFF78EF9D8
:1014700094F8483594ED089AD4F84475002B50D070
:10148000002384F84835B0A3D3E90023FFF736FAE8
:10149000002800F0A4809FEDAFAAF4EECA9AF1EE06
:1014A00010FAC0F2B480DFEDAC8A9FEDAC8AAC4E8E
:1014B00039EECAAA07F109052AEE28AA07F1470959
:1014C00038EE4A8A04F12808DFEDA67A6AEE277A18
:1014D000B6EE000AC7EEA8AA3AEEC00A0BF0A8FFC3
:1014E00007EE900AF8EEE77A00F03F003AEEE76A7E
:1014F00008EB890106EBC00204EB8503D2ED016A1B
:1015000092ED007AD3ED007AA6EE267A02F500720B
:10151000E8EE077AE3EC017A9942EFD1C4ED059A3F
:101520007DE089A3D3E90023FFF7E8F9002853D130
:101530009FED8D7AB4EE47AAF6EE007AF1EE10FA3E
:10154000C8BFF0EE678ADFED837AF4EEE79AF1EE3A
:1015500010FA38EE888A80F28F80B7EE00AAB4EED7
:10156000CA8AF1EE10FA56DB38EE4AAADFED7D6A40
:101570006AEE266A8AEE287A86EEA88AB6EE000A15
:1015800077EE277A38EE400AC4ED057A0BF050FF6B
:1015900007EE900AF8EEE77A714A07F1090300F0C6
:1015A0003F0004EB870138EE676A04EB830302EB2C
:1015B000C00201F5A271D2ED006AD3ED007A92ED7E
:1015C000017A77EEA67A02F50072E6EE077AE3EC8E
:1015D000017A9942EFD122E0DFED5F8AB3E7DFEDD8
:1015E000627AB4EEE7AAF1EE10FA40F39F80DFEDE5
:1015F000597AF4EEE79AF1EE10FA39DA9FED5B8A48
:10160000BEEE000AB0EE48AAF6EE008ABCE79FEDF7
:10161000538ADFED518A0023B0EE48AA636104EBE0
:101620008703D3ED0D7A93ED097AF6EE006A77EE33
:10163000A67A37EE497A77EECA7AA7EE269AFF2F76
:10164000C3ED0D7A94ED010A29EE000A07F10103BA
:1016500084ED000A55D084ED06AAC4ED078A84ED16
:10166000089AC4F8443503B0BDEC068BBDE8F0839E
:10167000B7EE008AF6EE008A9FED36AA39EECAAAC6
:10168000F7EE007A2AEE28AA38EE4A8AB4EEE78A04
:10169000F1EE10FA4DDB38EE678A9FED327A304E6C
:1016A0007AEE087AB6EE000A67EE877A07F1090546
:1016B000C7EEA8AA07F1470904F128083AEEC00AC4
:1016C0000BF0B6FE07EE900AF8EEE77A00F03F0363
:1016D0003AEEE76A04EB850206EBC30308EB8901E7
:1016E000D3ED006AD2ED007A93ED017A77EEA67A17
:1016F00003F50073E6EE077AE2EC017A9142EFD14E
:10170000E2E64FF4907204F2244104F124008DEDDE
:10171000010A0BF080F84FF48062002104F5A270FA
:101720000AF0EDFF9DED010A002394E7B6EE008A72
:1017300009E70B4E07F1090507F1470904F12808ED
:10174000C2E600BFAFF30080F168E388B5F8E43E7D
:10175000C637BE3708E53C1EACC52737A800003F9A
:10176000402C0108000080420044AC46000000000C
:101770004FF0010C0023094A80F858C500214FF0B2
:101780007E5CC260C0F804C043610361C362C0F8FC
:1017900050154FF4A46230300AF0B1BF0000DC43B2
:1017A0002DE9F84F2DED088B90ED038ADFEDB68A19
:1017B00090ED05AAD0ED07AA68EE288A044618EE37
:1017C000900AFEF7E3FF94F8583594ED089A94EDEB
:1017D0000ABAD4ED0B9AD4F85065D4F85455002BBE
:1017E0007FD0A7A3D3E90023FFF788F8D0B3002563
:1017F000206984F85855FEF7C9FFA44BDFEDA4AA71
:101800009FEDA49A0022FEF763FEA34B0022FEF791
:101810002FFDFFF79BF808EE100AB4EEEA8AF1EE0E
:1018200010FADFED9E7AB8BFB0EE6A8AB4EEE78AAE
:10183000F1EE10FAB4EEC9AA88BFB0EE678AF1EEF5
:1018400010FA80F23381B4EEEA8AF1EE10FA40F237
:101850000783B0EE6A9AB6EE00BAF0EE6A8A002309
:10186000A361D6E0DFED8E7AB4EEE78AF1EE10FAEE
:1018700000F3FE80F7EE00AA7AEEE8AA00252069C0
:1018800084F85855FEF782FF804B9FED829A002224
:10189000FEF71EFE804B0022FEF7EAFCFFF756F82B
:1018A00008EE100AB4EEE88AF1EE10FAB8BFB0EE16
:1018B000688AB4EEEA8AF1EE10FAB4EEC9AA88BFDB
:1018C000B0EE6A8AF1EE10FA80F25682B4EEE88A3F
:1018D000F1EE10FA40F2FB82B0EE689AB6EE00BA72
:1018E000BDE7F7EE00BA66A3D3E900237BEEC9BAE1
:1018F000FFF704F8002840F05F82DFED697AB4EE6C
:10190000E78AF1EE10FAC8BFF6EE008A7AEEA8AACE
:101910002069FEF73BFF5D4B0022FEF7D9FD5E4BD1
:101920000022FEF7A5FCFFF711F808EE100AB4EE4E
:10193000C98AF1EE10FAB8BFB0EE498ADFED557AE8
:10194000B4EEEB8AF1EE10FAB4EEE7AA88BFB0EE7F
:101950006B8AF1EE10FA4DDB7AEE677A27EEA89AE1
:101960007AEEC9BA002D00F01182F7EE007AF4EE9B
:10197000E7BAF1EE10FA80F252814A4F06F10C05F7
:1019800006F1470904F13408DFED477A69EE277A5A
:10199000B6EE000AC7EEA8AA08EB89083AEEC00A1C
:1019A0000BF046FD07EE900AF8EEE77A00F03F00F4
:1019B0003AEEE76A07EBC00304EB8502D3ED006A59
:1019C000D2ED007A93ED017A77EEA67A03F50073F3
:1019D000E6EE077AE2EC017A9045EFD1B6EE00BA76
:1019E000B4EEC89AF1EE10FA80F29181002584EDF0
:1019F00006AA0EE0002D00F0E481B7EE009AF4EEA6
:101A0000C9AAF1EE10FA80F2C8800023B0EE6A9AFB
:101A1000A36104EB860393ED0C7AD3ED107A37EED5
:101A2000697A77EE8B7AF6EE006AE7EE269AFF2E59
:101A3000C3ED107A94ED01AA29EE8AAA06F10103FA
:101A400084ED00AA00F05281B0EE4A0A84ED079AB4
:101A5000C4ED088A84ED098A84ED0ABAC4ED0B9AB4
:101A6000BDEC088BC4F85035C4F85455BDE8F88F68
:101A7000F6EE00AAF0EE6A8A00E700BFAFF300803E
:101A8000F168E388B5F8E43EC637BE370000F03FA2
:101A9000ACC5273708E53C1E0000E03F58FF7F3FFC
:101AA0000044AC46402C0108000080423AEE499ABE
:101AB000F0EE6A8A29EE2A9A7AEEC9BAB4EEEB8A77
:101AC000F1EE10FA8AD81FED087AE14F7AEEC87A63
:101AD000B6EE000A67EE877A06F10C0587EEA8BA23
:101AE00006F1470904F134083BEE400A0BF0A0FC74
:101AF00007EE900AB8EEE76A00F03F0336EE4B6A55
:101B000004EB850207EBC30308EB8901D3ED006A00
:101B1000D2ED007A93ED017A77EEE67A03F5007361
:101B2000E7EE067AE2EC017A9142EFD1F7EE007A25
:101B3000F4EEE7BAF1EE10FAFFF626AFF7EE007A10
:101B40007AEEE77A9FEDC57A67EE877AB6EE000AFD
:101B5000C7EEA8AA08EB89083AEEC00A0BF068FCA9
:101B600007EE900AF8EEE77A00F03F033AEEE76AF4
:101B700007EBC30304EB8502D3ED006AD2ED007AD4
:101B800093ED017A77EEA67A03F50073E6EE077A15
:101B9000E2EC017A9045EFD120E73AEEC99ADFED09
:101BA000AF6AAB4F89EE287A06F10C0504EB850588
:101BB00004EB860808F5A87869EE266A77EE277A9E
:101BC00086EEA8AAB6EE000AC4ED067A3AEE400AFE
:101BD0000BF02EFC07EE900AF8EEE77A00F03F03D8
:101BE0003AEE676A07EBC3032A46D3ED006AD2EDEB
:101BF000007A93ED017A77EEA67A03F50073E6EEAC
:101C0000077AE2EC017A9045EFD1B4EEC98AF1EEA1
:101C100010FA40F25F81B6EE00BA0025F9E67BEEDD
:101C2000E7BA9FED8E7A8A4F79EE2B7AB6EE000AEC
:101C300067EE877A06F10C05C7EEA8AA04EB850AC1
:101C400006F1470904F1340808EB890B3AEEC00AA3
:101C50000BF0EEFB07EE900AF8EEE77A00F03F0398
:101C60003AEEE76A07EBC3035246D3ED006AD2EDC2
:101C7000007A93ED017A77EEA67A03F50073E6EE2B
:101C8000077AE2EC017A9345EFD1B4EEEB8AF1EEFC
:101C900010FA3FF6A3AE79EE487A9FED707A77EEB0
:101CA000AB7AB6EE000A67EE877AC7EEA8AA3AEEDC
:101CB000C00A0BF0BDFB07EE900AB8EEE76A00F031
:101CC0003F0336EE6A6A07EBC303D3ED006ADAED31
:101CD000007A93ED017A77EEE67A03F50073E6EE8B
:101CE000077AEAEC017AD345EFD14DE64FF49072D2
:101CF00004F5866104F130000AF08DFD4FF4806236
:101D0000002104F5A8700AF0FAFC00239CE69FED80
:101D1000537A79EE487AB6EE000A67EE877AC7EE14
:101D2000A8AA3AEEC00A0BF083FB07EE900AB8EEC1
:101D3000E76A474A06F10C0300F03F0004EB860116
:101D400036EE6A6A04EB830302EBC00201F5A87168
:101D5000D2ED006AD3ED007A92ED017A77EEE67A61
:101D600002F50072E6EE077AE3EC017A9942EFD1D0
:101D7000BEEE00BA01253AE63AEE499AF0EE68AABC
:101D800029EE289AB6EE00BA78EEC9BAB4EEEB8A1C
:101D9000F1EE10FA7FF697AEF7EE007AF4EEE7BABE
:101DA000F1EE10FAFFF61CAE294F06F10C0506F114
:101DB000470904F13408C1E6DFED268A7AEEA8AAC5
:101DC000A6E5B4EEEA8AF1EE10FA4BD9B7EE009A26
:101DD000F4EEC9AAF1EE10FAC0F2A8803AEEC99A60
:101DE0009FED1E7ADFED1C6A29EE077AC9EE287A8C
:101DF00087EE28AA77EEA67AB6EE000AC4ED067A38
:101E00003AEE400A0BF014FB07EE900AF8EEE77A80
:101E10000F4A06F10C0300F03F0004EB86013AEE96
:101E2000676A04EB830302EBC00201F5A871D2EDEF
:101E3000006AD3ED007A92ED017A77EEA67A02F588
:101E40000072E6EE077AE3EC017A9942EFD1E2E61E
:101E5000402C0108ACC5273708E53C1E0000804235
:101E6000F0EE6A8A1FED037A7AEEC87AB6EE000ABF
:101E700067EE877A87EEA89A39EE400A0BF0D8FA17
:101E800007EE900AB8EEE76A2A4A06F10C0300F062
:101E90003F0004EB860136EE496A04EB830302EB54
:101EA000C00201F5A871D2ED006AD3ED007A92ED7F
:101EB000017A77EEE67A02F50072E7EE067AE3EC55
:101EC000017A9942EFD1BEEE00BA01257EE7F0EE2D
:101ED00068AAC7E79FED187A79EE487AB6EE000A4D
:101EE00067EE877A87EEA8AA3AEE400A0BF0A0FACE
:101EF00007EE900AB8EEE76A00F03F0036EE4A6A55
:101F000007EBC007D7ED006AD5ED007A97ED017AAF
:101F100077EEE67A07F50077E6EE077AE5EC017AE8
:101F2000A845EFD1BEEE00BA012572E5B0EE6A9A7F
:101F300095E400BF402C0108000080424FF07E5223
:101F400000234260DFF820C0C0F80CC0012200214D
:101F500080F85425436103618362C0F84C154FF447
:101F6000A4622C300AF0CBBB0000DC430000000070
:101F70002DE9F04F2DED0C8BD0ED03BA9FEDE28AE9
:101F8000D0ED05AA90ED07BA2BEE888A044683B0FF
:101F900018EE100AFEF7FAFB80462069D4ED089A85
:101FA00094ED0AAAD4F84C65D4F850558946FEF74A
:101FB000EDFBD64B0022FEF78BFAD54B0022FEF745
:101FC00057F9FEF7C3FC94F8543509EE100A002BBC
:101FD00041D1F4EEC99AF7EE008A78EEE98AF1EE83
:101FE00010FAB8BFF0EE499AF4EEE98AF1EE10FA71
:101FF000C3A3D3E900234046494688BFF0EE698A6F
:10200000FEF77CFC002800F06E819FEDC28ADFEDB8
:10201000C27AF4EEE7AAB7EE009AF1EE10FA79EE82
:1020200068BA38EE0BBA80F20781002D00F0828189
:10203000B4EEC9BAF1EE10FA80F2A08178EECB7A54
:10204000002387EEAB9AA361F6EE007A39EE279A69
:10205000F0EE4B9A95E0AAA3D3E900234046494607
:10206000FEF74CFC002800F0B8809FEDAA8A9FED97
:10207000AB7ADFEDA97AB4EEC89AF1EE10FAB4BFEC
:10208000F0EE488AF0EE498AF4EEC78AF1EE10FAD3
:10209000F4EEE7AA88BFF0EE478A0023F7EE00BA15
:1020A000B6EE007AF0EE489AF1EE10FAE8EE879A72
:1020B00084F854357BEEE8BAC0F23E817AEEE77AD6
:1020C0009FED9BDADFED96DA67EE88CABEEE000A76
:1020D0002CEE8DDA39EEECCAADEE2D0A0BF0A8F934
:1020E00007EE900AB8EEE79AB0EE69BA9DEE2D9A27
:1020F00000F03F09F0EE6C9AF4EECC8AF1EE10FAA3
:1021000040F2CD81F7EE007AB4EEE7CAF1EE10FAB4
:1021100080F265828CEE287A06F10B0A04F1300712
:10212000F6EE007A37EE67CA7E4BBEEE006A04EB2D
:102130008A0A06F1470136EE4C6A03EBC90307EB46
:1021400081015246D3ED016A93ED007AD2ED007A17
:10215000A9EE267A03F50073E6EE077AE2EC017A3F
:102160009142EFD1F4EEE98AF1EE10FA40F2928258
:1021700089EEA89A0025F6EE007A39EE679AC4ED4A
:1021800006AA04EB860393ED0B7AD3ED0F7A37EEB4
:102190004A7A77EE897AF6EE006AA7EE26AAFF2E33
:1021A000C3ED0F7A94ED010A2AEE000A06F101034D
:1021B00084ED000A00F05982C4ED079A84ED088A84
:1021C000C4ED098A84ED0AAAC4F84C35C4F8505508
:1021D00003B0BDEC0C8BBDE8F08FDFED537AF4EE6D
:1021E000E7BAF1EE10FA00F3BF80B4EEC98AF7EE59
:1021F00000BA7BEEC88AF1EE10FAA8BFB0EE489A9A
:10220000DFED457A84F85405B4EEE89AF1EE10FA61
:10221000F4EEE7AA98BFF0EE498AB6EE007AF0EE47
:10222000489AF1EE10FAE8EE879A7BEEE8BAC0F22F
:102230008380B0EE69BA0546DFED379ADFED3CCA20
:102240007AEEE99AB6EE00DA69EE889A69EEAC7A2F
:102250003BEE69CA87EE889A39EE4D0A0BF0E8F832
:1022600007EE900AF8EEE77A00F03F0939EE679A38
:10227000002D3FF441AFF7EE007A87EEA87AC7EE63
:10228000AB6AB4EEE7CA37EE267AF1EE10FA79EED1
:10229000CBDA27EE08BA80F2C1807DEEA8DA234DB2
:1022A0008DEEABCA06F10B0A06F1460804F13007C1
:1022B0003CEE0DCA05EB890207EB880804EB8A03A4
:1022C000D2ED007AD2ED016A93ED007A76EEE76AFC
:1022D00002F58072E9EE267AA7EE8B7AA3EC017AFA
:1022E0009845EDD120E79FED107AF4EE47BAF6EE6F
:1022F000007AF1EE10FAC8BFB0EE678A87E600BF39
:10230000F168E388B5F8E43EC637BE370000F03F19
:102310000000E03FACC5273708E53C1E58FF7F3F73
:102320000050C347402C01080044AC463CE500087F
:1023300000008042F0EE4B9AF4EEE89AF1EE10FACB
:1023400080F2068189EEA89A0025F6EE007A39EE31
:10235000679AB7EE00BAF4EECB9AF1EE10FA80F27B
:10236000E3810023A3610CE7F6EE008AB0EE688AF1
:1023700084F85405B5EE00BA054648E67BEE499A66
:102380005FED156AE54D89EE887A06F10B0704EBDF
:10239000870704EB860808F5A47869EEA66A77EE4D
:1023A000277A86EE88CAB6EE000AC4ED067A3CEEBD
:1023B000400A0BF03DF8C9EE28AA00F03F0305EBF8
:1023C00083033A46C9EE2B7A07EE100A7AEEA7AAE3
:1023D000B8EEC77A6AEE88AA3CEE476AD3ED007A77
:1023E000D3ED016A92ED007A76EEE76A03F5807329
:1023F000E6EE267AAAEEA77AA2EC017A9045EDD114
:10240000F4EEE89AF1EE10FA80F2D78189EEA89AFC
:102410000025F6EE007A39EE679AB2E63CEE67CA1E
:10242000BE4D79EE8C7A06F10B0A67EEAC7A04EBBE
:102430008A0BC7EE88CA06F1460804F130073CEE65
:10244000CD0A0AF0F5FF07EE900AF8EEE77A00F001
:102450003F033CEEE76A05EB830307EB88015A462E
:10246000D3ED007AD3ED016A92ED007A76EEE76A59
:1024700003F58073E6EE267AA7EE8B7AA2EC017A5A
:102480009142EDD1B4EEE8CAF1EE10FA80F2CD81BE
:102490008CEE287AF6EE007A37EE67CA44E69FEDB6
:1024A000A07A9E4D7BEE687AB6EE000A67EE877AD8
:1024B000B7EE007AC7EE88CA06F10B0A06F14608A5
:1024C00004F1300787EE28DA3CEEC00A0AF0B0FFCC
:1024D000FFEE007A87EEAB6A00F03F0305EB830363
:1024E00004EB8A0207EB880107EE900A36EE4D6A8C
:1024F000F8EEE77A26EE086A7CEEE75AD3ED007A2A
:10250000D3ED016A92ED007A76EEE76A03F5807307
:10251000E5EEA67AA6EE277AA2EC017A9142EDD1F9
:10252000B7EE007AB4EEC7CAF1EE10FA60DA78EED0
:10253000A97AC7EE2B6A77EECB7A36EE8DBA87EEA4
:10254000ABCAB6EE007A2BEE08BA3CEE07CAB1E68B
:10255000DFED736A79EEE87A38EEE97A67EEA67A0B
:1025600087EE2B9AC7EE88AAB6EE000A39EE009ADB
:102570003AEEC00A0AF05CFFFFEE007AB7EE007A8E
:1025800087EEAB6A654A06F10B0304EB860104EBA8
:10259000830301F5A471C7EE287A07EE100A36EE20
:1025A000676AB8EEC77A00F03F007AEEC75A26EEA7
:1025B000086A02EB8002D2ED007AD2ED016A93ED57
:1025C000007A76EEE76A02F58072E5EEA67AA6EE6C
:1025D000277AA3EC017A9942EDD10125B9E687EE7D
:1025E000A8DA4E4D06F10B0A06F1460804F1300751
:1025F00007EB8808F7EE00CA3CEE6C7ADFED486A1C
:1026000077EE297A87EE28CA67EEA67AB6EE000A38
:1026100087EE88BA3CEE40CA3BEE400A0AF008FF5B
:102620008CEEAB6A00F03F0305EB830304EB8A02F8
:1026300007EE900A36EE0D6AF8EEE77A26EE086AA3
:102640007BEE675AD3ED007AD3ED016A92ED007A02
:1026500076EEE76A03F58073E5EEA67AA6EE277AB2
:10266000A2EC017A9045EDD15EE54FF4907204F250
:102670002C4104F12C008DED010A0AF0CCF84FF446
:102680008062002104F5A6700AF039F89DED010A78
:10269000002391E5DFED226A79EEE87A38EEE97AF7
:1026A00067EEA67A87EE2B9A87EE88BAB6EE000A16
:1026B00039EE009A3BEE400A0AF0BAFEFFEE007ACD
:1026C000B7EE007A87EEAB6A144B06F1460207EBD1
:1026D0008207C7EE287A07EE100A36EE676AB8EE70
:1026E000C77A00F03F007BEE475A26EE086A03EBFC
:1026F0008003D3ED007AD3ED016A9AED007A76EE8D
:10270000E76A03F58073E5EEA67AA6EE277AAAECCF
:10271000017A5745EDD1012531E500BF3CE50008C0
:102720000000804208E53C1E79EECB9A1FED047A4A
:102730005FED046A29EE877AC9EE887AC7EE08AAA7
:1027400089EEA89A77EEA67AB6EE007A3AEEC70A34
:10275000C4ED067A39EE479A0AF06AFE8BEE286AD3
:102760004E4A06F10B0304EB860104EB830301F5EB
:10277000A471CBEE2B7A07EE100A36EE276AB8EE7C
:10278000C77A00F03F007AEEC75A26EE086A02EBDD
:102790008002D2ED007AD2ED016A93ED007A76EEF6
:1027A000E76A02F58072E5EEA67AA6EE277AA3EC38
:1027B000017A9942EDD10025E3E4DFED396A39EE83
:1027C000E87AF7EE007A78EEA77A27EE267A77EEA7
:1027D000CB7A87EE08BA87EEAB9AF6EE007A3BEE3C
:1027E000670A39EE279A0AF023FE07EE900AF8EE00
:1027F000E77A00F03F003BEE676A05EB8002F1EEFE
:102800006AAAD2ED007AD2ED016A97ED007A76EEEF
:10281000E76A02F58072E6EE267AA7EEAA7AA7ECBE
:10282000017AB845EDD10125ABE479EEE87ADFED28
:102830001C6A019177EE8C7AB7EE007A38EE877ACF
:1028400067EEA67A37EE2D7AC7EE88CA87EE2BCAD6
:10285000F6EE007A3CEEE70A3CEE27CA0AF0E8FD05
:1028600007EE900AF8EEE77A00F03F033CEEE76AE5
:10287000019905EB8303D3ED007AD3ED016A9BED5B
:10288000007A76EEE76A03F58073E6EE267AA7EE25
:10289000CB7AABEC017A5945EDD10BE53CE500086C
:1028A0000000804270B52348234C244A244D6260C6
:1028B0004260244ADFF89CE0C5F800E0C2F800E07E
:1028C000214EDFF894E06E604FF07C53C5F808E0CD
:1028D0001E4EA360002504F58051236083600360D1
:1028E000566000F58053956040F27752E260C26016
:1028F000012281F8F42583F8F42501F5BE6103F582
:10290000BE63DFF858C0124EC1F800C04FF4AF5597
:102910002A46C3F800C000214FF07E5310303360C8
:1029200009F0EDFE2A4604F110000021BDE87040D8
:1029300009F0E5BE2026001028100010CDCC4CBEBA
:10294000283C0010183C0010AE47E13D8FC2F53D19
:102950006411002000004842DB0FC93F00007043B3
:102960007F2800D0704770B52348244C2449254D5A
:10297000616041602449DFF8A0E0C5F800E0C1F8DB
:1029800000E0224EDFF894E06E604FF07C53C5F813
:1029900008E01F4EA360002504F580522360836089
:1029A00003604E6000F580538D6040F27751E16026
:1029B000C160012182F8F41583F8F41502F5BE62B6
:1029C00003F5BE63DFF858C0124EC2F800C0C3F86A
:1029D00000C04FF4AF524FF07E53002110303360EF
:1029E00009F08DFE04F110004FF4AF52BDE87040C5
:1029F000002109F084BE00BF20260010281000101E
:102A0000CDCC4CBE283C0010183C0010AE47E13D38
:102A10008FC2F53D6411002000004842DB0FC93F22
:102A20000000704307EE100ADFED096ADFED097A56
:102A3000094B0A4AB8EEC77AE7EE267A93ED007A98
:102A4000074BC2ED017A27EE277A83ED017A7047B2
:102A500087C3613D0AD7A33C64110020283C0010C5
:102A6000183C001007EE100ADFED096ADFED097A65
:102A7000094B0A4AB8EEC77AE7EE267A93ED017A57
:102A8000074BC2ED007A27EE277A83ED017A704773
:102A9000D436E83BCDCCCC3D283C0010641100205E
:102AA000183C001007EE900A9FED067A064A074B85
:102AB000F8EEE77A67EE877AC2ED007AC3ED007A26
:102AC000704700BFC260B04018260010103C0010D4
:102AD00007EE900A9FED067A064A074BF8EEE77A72
:102AE00067EE877AC2ED017AC3ED017A704700BFC5
:102AF0006E1DF53B281000102026001007EE900AEE
:102B00009FED067A064A074BF8EEE77A67EE877A7A
:102B1000C2ED007AC3ED007A704700BF667F8C3F3C
:102B2000283C0010183C001050B17F2800D070479E
:102B30000749084AFF2381F8F43582F8F4357047D5
:102B40000349044A012381F8F43582F8F4357047CB
:102B5000282000102036001088B17F2800D0704750
:102B6000104A114B92ED017AD3ED017AB0EEC77A9B
:102B7000F0EEE77A82ED017AC3ED017A7047094AF7
:102B8000094B92ED017AD3ED017AB0EEC77AF0EEFF
:102B9000E77AB1EE477AF1EE677A82ED017AC3ED1A
:102BA000017A7047202600102810001010B59FED04
:102BB000557AB4EEC70AF1EE10FAF1EE087A2DED6F
:102BC000028B8CBFB0EE478AB0EE408AB4EEE78A43
:102BD000F1EE10FAB8BFB0EE678AB0EE480A0446CC
:102BE0000AF066FCBDEEC00AE36810EE102AF8EEAB
:102BF000C07A9B1A38EE678A04EB830251D492EDB7
:102C0000044A002B40D0012B92ED033AA3F10202BB
:102C100058D104F5AF52D2ED032A40F27653B0EE0C
:102C2000006A38EE466ADFED386A9FED385A04EBE9
:102C30008304F0EE085A78EE655A66EE266AD4ED03
:102C4000043AB6EE007A28EE077AF7EE007AFEEE46
:102C5000004A78EE677A65EEA44A66EEA36A27EE2C
:102C6000037A27EE855AE4EEA26A27EE880AF0EE90
:102C7000477ABDEC028BE5EE047A26EE256A20EE5B
:102C8000260AA6EE270A10BD04F5805303F2EC5283
:102C900003F5BD63D3ED002A92ED003A40F275537F
:102CA000BDE702F5805202F5BE6113F5AF6F91EDFD
:102CB000004A10DD02F2EC5103F27652531C91ED02
:102CC000003AA6D004EB8203D3ED042A531E48BF7A
:102CD00002F27753A3E703F6EE22002ABCBF03F506
:102CE0008352063203F6F32104EB8203D3ED042A68
:102CF00004EB8101531E91ED003A48BF02F2775375
:102D00008DE700BF0040AE44ABAA2A3EABAA2ABE64
:102D1000D1ED027AD1ED016A9FED4F7AE6EE877A26
:102D200070B5F5EEC07A00F5805606F5BE63F1EE9B
:102D300010FA2DED048B0D4693ED009AC1ED027A49
:102D40000446B0EE408A73D59FED446ADFED446AD5
:102D5000B0EE677AB4EEE67AF1EE10FA77EE867AA4
:102D6000F6D4B5EEC07AF1EE10FAC5ED027A03DBC7
:102D7000DFED3C7AC5ED027A9FED3B0A27EE800A33
:102D80000AF056FB394B95ED007A03EB800393ED87
:102D9000000AF7EE007A30EE270AF1EE087A20EE0C
:102DA000070A39EE279A85ED030A204630EE090A14
:102DB000FFF7FCFE96F9F435D4ED019A012BF0EE05
:102DC000408A30D0B0EE490A2046FFF7EFFEF0EE21
:102DD000487AE0EE297AE268B7EE007AF4EEC77A34
:102DE000F1EE10FA88BFF0EE477ABFEE007AF4EE0B
:102DF000C77A531CF1EE10FAB8BFF0EE477AB3F57C
:102E0000AF6FD4ED026A94ED007A04EB8202A8BFA2
:102E10000023C2ED047AE36028EEA60ABDEC048B21
:102E2000A7EE270A70BDF0EE487AE0EE297AD2E7E5
:102E3000DFED0A6AF4EEE67AF1EE10FA9CDB9FED24
:102E40000C6AB0EE677AB4EEC67AF1EE10FA77EE5D
:102E5000E67AF6DA8EE700BF92651539DB0FC940D6
:102E6000DB0FC9C00000000083F9224390BE0108B7
:102E7000DB0F49412DE9F041574D9FED587AD5EDD3
:102E8000027AD5ED016ADFF87C81E6EE877A08F5F3
:102E9000BE6307462DED048BF5EEC07AF1EE10FA15
:102EA00093ED009AC5ED027AF0EE408A0E467FD58A
:102EB0009FED4B6ADFED4B6AB0EE677AB4EEE67ACF
:102EC000F1EE10FA77EE867AF6D4B5EEC07AF1EE2E
:102ED00010FAC5ED027A03DBDFED437AC5ED027A25
:102EE0009FED420A424C27EE800A0AF0A1FA414BBC
:102EF00095ED007A03EB8003F1EE087A39EE279A1C
:102F0000D3ED007AF7EE006A77EEA67A204667EEF8
:102F1000877A39EE270AC5ED037AFFF747FE98F95D
:102F2000F435D4ED019A012BB0EE408A3BD0B0EEDF
:102F3000490A2046FFF73AFEF0EE687AE0EE297A79
:102F4000E3682D4994ED026AD4ED006A2B48B7EE90
:102F5000007AF4EEC77AF1EE10FA88BFF0EE477A05
:102F6000BFEE007AF4EEC77AF1EE10FA28EE068A88
:102F7000B8BFF0EE477AA7EEA68A04EB83020133CE
:102F8000B3F5AF6FA8BF0023C2ED047AE360B0EEE3
:102F9000680A87ED008AFFF7BBFEBDEC048B86ED67
:102FA000000ABDE8F081F0EE687AE0EE297AC7E722
:102FB000DFED0B6AF4EEE67AF1EE10FA90DB9FEDAE
:102FC000106AB0EE677AB4EEC67AF1EE10FA77EED8
:102FD000E67AF6DA82E700BF283C001092651539E0
:102FE000DB0FC940DB0FC9C00000000083F922439A
:102FF0002810001090BE0108183C00102026001078
:10300000DB0F49412820001030B40649064C074B1D
:103010000748084A086043F2C82525601A6030BC9A
:10302000704700BF741100206C1100207011002047
:103030007811002098DC0020024A0348002109F0A2
:103040005EBB00BFC8D40100781100207F2814D1D6
:103050000A4B1A6847F21B518A429CBF14321A600D
:10306000074B08491B68A3EB82038B4238BF03F56B
:10307000EA33054A38BFBC33136070476C11002037
:103080007011002078110020741100207F2813D1C6
:103090000A4B0B491A68B2F5877F84BF143A1A604D
:1030A000084B1B68A3EB82038B4238BF03F5EA335E
:1030B000054A38BFBC331360704700BF6C11002055
:1030C00078110020701100207411002007EE900A82
:1030D0009FED0D7A9FED0D0AF8EEE77A08B5A7EEA1
:1030E000870A0AF0A5F90A4B0A4A1B680A49A3EBAA
:1030F0008003934238BF03F5EA33084A086038BFBB
:10310000BC33136008BD00BF7D3E6A4300007A43B4
:1031100070110020781100206C1100207411002023
:1031200007EE900A9FED047A044BF8EEE77A67EE1B
:10313000877AC3ED007A70470402013C0800002042
:1031400007EE900A9FED047A044BF8EEE77A67EEFB
:10315000877AC3ED007A70470402013C0400002026
:1031600023492448D1ED006A0368DFED237AB3ECEC
:10317000017A224A66EEA76ADFED217A92ED006AB3
:10318000E7EE276A30B4F0EE407AE6EE267A1D4D7F
:103190001D4CC1ED006AB7EE007AF4EEC77AF1EE8D
:1031A00010FA88BFF0EE477ABFEE006A17492A6826
:1031B000D1ED006A1649F4EEC67AF1EE10FAB8BF06
:1031C000F0EE467AE2EC017A37EE667AA2EB010C79
:1031D000A445C8BF0A462A6027EE000A5A1AA2422E
:1031E000C8BF0B46A6EEA70A30BC0360704700BFFD
:1031F00068110020741100209A99193F08000020DE
:10320000CCCCCC3E70110020BCD4010004000020C6
:103210007811002007EE900AF8EEE77A9FED077A22
:103220000749084A084B67EEA77A67EE877AC1ED2F
:10323000027AC2ED027AC3ED027A70471006823834
:10324000383C0010643C0010903C001000EB800003
:1032500000EB8000400007EE900ADFED096A9FED69
:10326000097A0949094A0A4BF8EEE77AA7EEA67AE5
:1032700081ED017A82ED017A83ED017A704700BF1A
:103280000402013CCDCCCC3D383C0010643C001025
:10329000903C001000EBC00300EB430007EE900AE7
:1032A000DFED0F6A0F4B1049104AB8EEE77AF7EEE0
:1032B000007AE7EE267AD3ED016A9FED0D7A67EE8C
:1032C000A67AF4EEC77AF1EE10FA88BFF0EE477AEC
:1032D000C1ED007AC2ED007AC3ED007A704700BFFD
:1032E0000402013C903C0010383C0010643C00108B
:1032F00000401C4690ED067AD0ED096AD0ED077AC1
:1033000090ED020AB8EE477AD0E90523E6EE877A17
:1033100001339342836120EE270A80ED0A0A00D22E
:103320007047D0ED006A90ED017ADFED177A036AFD
:10333000C7EE870A002210B58261C361044687EE9A
:10334000A60AC0ED040A80ED030A01F009FBFCEEB9
:10335000C07AF7EE000AC4ED057ABFEE000A01F06C
:10336000FFFAD4ED076A94ED057A70EE666AB8EE5E
:10337000477AF0EE407A86EE876A94ED0A0AC4ED49
:10338000087A84ED096A10BD0044AC4610B5244C9F
:10339000D4ED067AD4ED096A94ED020AB8EE677AA4
:1033A000D4ED077AE6EE877AD4E9052320EE270AE2
:1033B00001339342A36184ED0A0A00D210BDD4ED1B
:1033C000006A94ED017ADFED177A236AE361C7EEB4
:1033D000870A0022A26187EEA60AC4ED040A84EDE2
:1033E000030A01F0BDFAFCEEC07AF7EE000ABFEE68
:1033F000000AC4ED057A01F0B3FAD4ED076A94ED42
:10340000057A70EE666AB8EE477AF0EE407A86EE9C
:10341000876A94ED0A0AC4ED087A84ED096A10BD42
:10342000903C00100044AC4610B5244CD4ED067A14
:10343000D4ED096A94ED020AB8EE677AD4ED077A02
:10344000E6EE877AD4E9052320EE270A013393427A
:10345000A36184ED0A0A00D210BDD4ED006A94ED98
:10346000017ADFED177A236AE361C7EE870A00224B
:10347000A26187EEA60AC4ED040A84ED030A01F0F6
:103480006FFAFCEEC07AF7EE000ABFEE000AC4ED58
:10349000057A01F065FAD4ED076A94ED057A70EECD
:1034A000666AB8EE477AF0EE407A86EE876A94ED67
:1034B0000A0AC4ED087A84ED096A10BD643C001064
:1034C0000044AC462DE9F8432DED028BDFED4B8A2D
:1034D0009FED4B8A4B4C4C4FC4ED038A00254FF0B7
:1034E00081494FF08048F0EE480A0026B0EE680AA5
:1034F00084ED048A2562C4F80090C4F80480A760B3
:10350000E561A66101F02CFAF0EE407AFCEEE77A74
:10351000F7EE000ABFEE000AC4ED057A01F020FACA
:10352000F0EE407A94ED077AC4ED087AD4ED057A8E
:1035300030EE477AF8EE677AF0EE480AC7EE276A6F
:10354000B0EE680AC4ED096A304CC4ED038A84ED1C
:10355000048A2562C4F80090C4F80480A760A661BC
:10356000E56101F0FDF9F0EE407AFCEEE77AF7EE66
:10357000000ABFEE000AC4ED057A01F0F1F9F0EEA1
:10358000407A94ED077AC4ED087AD4ED057A30EEEE
:10359000477AF8EE677AF0EE480AC7EE276AB0EE8F
:1035A000680AC4ED096A1A4CC4ED038A84ED048AE2
:1035B000C4F800902562C4F80480A760A661E561A4
:1035C00001F0CEF9FCEEC07AF7EE000ABFEE000A79
:1035D000C4ED057A01F0C4F9D4ED077A84ED080A48
:1035E00030EE677AD4ED057AF8EE677ABDEC028B9F
:1035F000C7EE276AC4ED096ABDE8F8830044AC450C
:1036000000442C46903C00100AD7233C643C001038
:10361000383C0010042908B50FD0052902D0022932
:1036200013D008BD0E4B042200201A7002F0BEFE1B
:10363000BDE80840032002F0B9BE094B01221A7010
:10364000BDE80840032002F0A3BE054B002019701E
:1036500002F09EFEBDE80840032002F0A7BE00BFB6
:1036600041E601200B4A08B5137883F0010313707B
:1036700033B1FDF7EBFABDE80840022002F0A4BE2A
:103680000548FDF79DFDFDF7E1FABDE80840022081
:1036900002F09ABE0C00002000000010704700BF2E
:1036A00008B5022002F074FEFEE700BF0000000033
:1036B00000B593B003F098F8012002F03BFE002023
:1036C00002F038FE022002F035FE032002F032FE46
:1036D00029492A4A0B6C43F080530B6413689FED11
:1036E000247B43F44043136002204FF48003022400
:1036F0000721CDE90C43CDE9100108224FF4A8734E
:1037000006A88DED067BCDE90E2305F089FE60BB92
:103710000F21CDE9011403464FF480524FF4A05518
:10372000052101A8CDE90335059206F01BF80446F2
:10373000D8B9012102F054FE01F0F6F801F040FF83
:10374000FDF714FE22460E490E480E4C06F0F6FF19
:103750000D490C4807F022F80A4807F0E9FCFDF78C
:103760004BFA204607F0EEFCF9E7FFF799FF00BFA0
:10377000010000000100000000380240007000401D
:103780001536000844E6012060000020704700BFA5
:1037900008B507EE900A9FED097AF8EEE77A2DED6D
:1037A000028BB0EE408A80EE880A67EE870A09F045
:1037B00097FD20EE080ABDEC028B08BD0402013C17
:1037C00060EE007A9FED0B7A9FED0B0AB2EE0E6A67
:1037D000A7EE867AB0EE406AF0EE476A9FED077A70
:1037E00037EE877AA6EEA76AA7EE270A80EE060ACA
:1037F000704700BF0000D24300406C440000D2423A
:10380000DFED0F7AB4EEE70AF1EE10FA14D4DFED33
:103810000D7AB4EEE70AF1EE10FA02DDB7EE000A17
:1038200070479FED097ADFED097AA0EE007A60EE2D
:10383000277A87EE870A7047BFEE000A704700BFFD
:103840009A99F9BF9A99F93FAE478940CDCC844007
:10385000F6EE007A60EE277A9FED0C6ADFED0C6AD7
:1038600067EEA77AB2EE0E7AA7EE876A9FED097A25
:1038700077EEA66AF0EE475AE7EE865AA7EEA67AEA
:10388000C7EE257A27EE800A704700BF0000D243BA
:103890000000D24200406C4460EE007A9FED096A5D
:1038A000F0EE005AF9EE046AB2EE0E7AE7EEA56A7F
:1038B00037EEC77A60EE067A67EE277A87EEA60AB9
:1038C000704700BFABAAAA3E00234FF07E5280EDA6
:1038D000000A80ED010AC0ED020AC360C3614361C2
:1038E0008261704708B5DFED050AB7EE000AFFF701
:1038F0004FFF034B83ED000A08BD00BF0080BB45AE
:103900001000002010B5DFED050A0446B6EE000AEF
:103910000846FFF73DFF84ED020A10BD0000FA459E
:1039200007EE901AF8EEE77A9FED047A67EEA77A31
:1039300067EE877AC0ED057A704700BFAFD8FE38D2
:103940002DE9F041AA4FDFEDAB6A97ED067AD7ED8E
:10395000037AA94CA94DAA4E20EE077A2DED048BCF
:10396000E7EE267A94ED068AD5ED068A86ED020A00
:1039700020EE088A60EE288AF5EEC07AF1EE10FAA1
:10398000B0EE409A87ED027A84ED028AC5ED028A94
:10399000C7ED037A40F1DD809FED9A6ADFED9A6A08
:1039A000B0EE677AB4EEE67AF1EE10FA77EE867A48
:1039B000F6D4B5EEC07AF1EE10FAC7ED037A03DB68
:1039C000DFED927AC7ED037A9FED910ADFF8488226
:1039D00027EE800A09F02CFD9FED867A96ED030A0A
:1039E000D7ED007A08EB8000A9EE070AD0ED006A57
:1039F00096ED057A67EEA67AA7EE270AC7ED077A55
:103A0000B5EEC00AF1EE10FA86ED030A40F1B5807A
:103A1000DFED7C6A9FED7C7AF0EE407AF4EEC77AB7
:103A2000F1EE10FA30EE260AF6D4F5EEC07AF1EE99
:103A300010FA86ED030A03DB9FED740A86ED030A94
:103A4000DFED737A20EE270A09F0F2FCDFED697AE8
:103A500095ED030AA8EEA70A08EB8000D6ED008AD0
:103A6000D0ED007A85ED030A68EEA78AB5EEC00AAC
:103A7000F1EE10FAC6ED078A40F19380DFED616A3E
:103A80009FED617AF0EE407AF4EEC77AF1EE10FA2B
:103A900030EE260AF6D4F5EEC07AF1EE10FA85ED96
:103AA000030A03DB9FED590A85ED030ADFED587A1F
:103AB00020EE270A09F0BCFCDFED4E7A94ED030AF4
:103AC00094ED057A08EB8000A8EE270AD0ED006A95
:103AD000D5ED007A67EEA67AA7EE270AC5ED077A3C
:103AE000B5EEC00AF1EE10FA84ED030A6DD5DFEDF4
:103AF000456A9FED457AF0EE407AF4EEC77AF1EE32
:103B000010FA30EE260AF6D4F5EEC07AF1EE10FA8D
:103B100084ED030A03DB9FED3D0A84ED030ADFED2C
:103B20003C7A20EE270A09F083FC08EB8008D4EDEC
:103B3000007A98ED007A67EE877AB6EE000A77EEA3
:103B4000A88AC4ED077A28EE800ABDEC048BBDE894
:103B5000F081DFED2C6AF4EEE67AF1EE10FAFFF672
:103B600033AF9FED2C6AB0EE677AB4EEC67AF1EE11
:103B700010FA77EEE67AF6DA24E79FED227AB4EED1
:103B8000C70AF1EE10FAFFF65BAFDFED226AF0EE46
:103B9000407AF4EEE67AF1EE10FA30EE470AF6DA01
:103BA0004CE79FED187AB4EEC70AF1EE10FAFFF673
:103BB0007DAFDFED186AF0EE407AF4EEE67AF1EED2
:103BC00010FA30EE470AF6DA6EE79FED0E7AB4EEA1
:103BD000C70AF1EE10FAA2DBDFED0E6AF0EE407AD2
:103BE000F4EEE67AF1EE10FA30EE470AF6DA94E7F0
:103BF000D43D001092651539B43D0010943D00107D
:103C0000F43D0010DB0FC940DB0FC9C0000000000D
:103C100083F92243DB0F494190BE010810B52DED19
:103C2000028B90ED038AB5EEC08AF1EE10FA0446DD
:103C30000CD5DFED1D6A9FED1D7AF0EE487AF4EEAB
:103C4000C77AF1EE10FA38EE268AF6D49FED167A8E
:103C5000B4EEC78AF1EE10FA0ADBDFED156AF0EE7A
:103C6000487AF4EEE67AF1EE10FA38EE478AF6DAA0
:103C70009FED100A28EE000A09F0DAFBDFED0E7A5C
:103C800094ED027A0D4B94ED000AA7EE278A03EB20
:103C90008003D3ED007A84ED038ABDEC028B20EE25
:103CA000270A84ED070A10BDDB0FC940DB0FC9C02E
:103CB000DB0F494183F922439265153990BE010813
:103CC00010B52DED028B90ED038AB5EEC08AF1EEB2
:103CD00010FA04460CD5DFED216A9FED217AF0EE53
:103CE000487AF4EEC77AF1EE10FA38EE268AF6D466
:103CF0009FED1A7AB4EEC78AF1EE10FA0ADBDFED17
:103D0000196AF0EE487AF4EEE67AF1EE10FA38EE3F
:103D1000478AF6DA9FED140A28EE000A09F088FBBC
:103D2000D4ED025A9FED116A114B94ED000AA5EEF5
:103D3000868A03EB8003D3ED007A84ED038AF6EEE6
:103D4000006AB7EE007ABDEC028B20EE260A77EE11
:103D5000877A20EE270A84ED070A10BDDB0FC940E1
:103D6000DB0FC9C0DB0F494183F922439265153946
:103D700090BE0108D0ED037AF5EEC07AF1EE10FAAC
:103D800062D59FED466ADFED466AB0EE677AB4EE23
:103D9000E67AF1EE10FA77EE867AF6D4DFED415A44
:103DA000B4EEE57AF1EE10FA60DBD0ED026ADFEDF9
:103DB0003E7AC0ED035AF4EEE76AF1EE10FA26D52A
:103DC000F0EE657A9FED397AF4EEC76AF1EE10FAFB
:103DD0005CD89FED377AB0EE476AF4EEC67AF1EE22
:103DE00010FA90ED000A80ED047A1AD49FED2C7A37
:103DF000F0EE005AA7EEA57ADFED285A37EE467AA4
:103E000075EEC65A27EE007A87EE250A13E09FED7D
:103E1000297A90ED000A80ED047AB0EE476AF0EE60
:103E2000657AB8EE007AC7EE065AB7EE007AA5EECC
:103E3000A77A20EE070A9FED207A80ED070AE6EECA
:103E4000877AC0ED037A7047DFED146AF4EEE67A04
:103E5000F1EE10FA0CDB9FED196AB0EE677AB4EE62
:103E6000C67AF1EE10FA77EEE67AF6DAC0ED037A6A
:103E7000D0ED026A9FED0C7AF4EEC76AF1EE10FA0B
:103E8000A0D49FED0C7AB0EE476AA6E79FED0C6ACE
:103E900026EE866AB0EE467A9FE700BFDB0FC94088
:103EA000DB0FC9C0000000000000FA453661823E09
:103EB00017B7D138DB0F494092651539DB0F4941FF
:103EC0002EE3CD3970B57048704C714E714D2DEDAB
:103ED000028BFFF70FFAF7EE008A94ED007A6E4836
:103EE000B3EE098A30EE280AF0EE487AE0EE077A5F
:103EF000C6ED027AFFF7FEF994ED007A674830EEDE
:103F0000280AF0EE487AE0EE077AC5ED027AFFF76C
:103F1000F1F9D4ED007A624B30EE285A304625EEA6
:103F2000275A35EE088A83ED028AFFF723FF2846D9
:103F3000F0EE404AFFF71EFFD3ED037AF5EEC07AAC
:103F4000F1EE10FA34EE800A51D59FED566ADFED9E
:103F5000566AB0EE677AB4EEE67AF1EE10FA77EED2
:103F6000867AF6D4DFED516AB4EEE67AF1EE10FA15
:103F70004FDBDFED4F7AB4EEE75AF1EE10FA24D4BE
:103F8000DFED4C5A93ED007AC3ED045AB0EE656A4A
:103F9000F0EE667AF8EE006AC6EE865AF7EE006A30
:103FA000E7EEA56A27EE267ADFED436A83ED077A0E
:103FB000E8EE267ABDEC028B30EE070ADFED3F6AB1
:103FC000C3ED037A20EE260A70BDDFED3D7AB4EE34
:103FD000E75AF1EE10FA4DD8DFED3A5A93ED007A38
:103FE000C3ED045AB0EE656AF0EE667AD2E7DFED13
:103FF0002D6AF4EEE67AF1EE10FA0ADB9FED326AF2
:10400000B0EE677AB4EEC67AF1EE10FA77EEE67AA1
:10401000F6DA9FED277AB4EEC75AF1EE10FA1DD406
:104020009FED247AB0EE476AF4EEC67AF1EE10FA0C
:1040300083ED047A93ED007AACD4DFED1B6AF0EEE9
:10404000005AE7EEA56ADFED175A76EEC66A75EEFE
:10405000C65A66EE876A86EEA57AA5E79FED187ABE
:10406000B4EEC75AF1EE10FA06D89FED167AB0EE0C
:10407000476AD9E7F0EE667A9FED146A28EE066A81
:10408000B0EE467AD0E700BF903C00101000002050
:10409000F43D0010D43D0010643C0010383C00108A
:1040A000B43D0010DB0FC940DB0FC9C000000000A9
:1040B0000038F945DB0F494092651539C3F5A83E34
:1040C0007BF6C5C117B7D138DB0F49412EE3CD3997
:1040D0002DE9F041184A194D16462C4600274FF09D
:1040E0007E532DED028B44F8083B46F8087BDFED4C
:1040F000148A9FED148A57606B6005F12C08F0EE6E
:10410000680AB0EE480A00F02BFCA4EC010AD5EDD9
:10411000007A46F8047B30EE270A444585ED000A14
:10412000EDD1B7EE007AC7EE007ABDEC028BC5ED9B
:10413000007ABDE8F08100BFBC3C0010E83C0010F4
:1041400048E17A3F6F12833A38B5D54C2DED028B9A
:10415000B0EE408A84ED020A0F2800F2B682DFE852
:1041600010F0190023007700A9002801EB007D0161
:1041700086018F01CB01E10105020802210227021D
:104180001000BDEC028BC748BDE8384080ED030A43
:10419000FDF75AB9C248FFF7EDFDDFEDC37A20EE17
:1041A000270ABDEC028B38BDDFEDC07A94ED037AAF
:1041B000B4EEE70AF1EE10FA00F10082DFEDBC7A0E
:1041C000B4EEE70AF1EE10FAB5EEC07A00F12C82F7
:1041D000F1EE10FA0CD59FEDB76ADFEDB76AF0EE9D
:1041E000477AF4EEE67AF1EE10FA37EE067AF6D474
:1041F000DFEDB06AB4EEE67AF1EE10FA0ADB9FED7D
:10420000AF6AF0EE477AF4EEC67AF1EE10FA37EEC6
:10421000667AF6DADFEDAA7A94ED000AB4EEE77A70
:10422000F1EE10FA4BBFDFEDA76ADFEDA76AF7EEFC
:10423000007AF8EE087AE7EE267A27EE800ADFEDBC
:10424000A37A84ED070AA8EE277A84ED037AA8E71B
:10425000D4ED038A9FED977AF4EEC78AF1EE10FA57
:104260000ADBDFED966AF0EE687AF4EEE67AF1EEBC
:1042700010FA78EEC78AF6DAB0EE680A09F088F824
:104280009FED927AD4ED007AE8EE078A20EE270AB5
:10429000C4ED038A10EE100A84ED070AFCF776FAE3
:1042A0007DA3D3E90023FBF7E3FFFCF74FFB00EE10
:1042B000100A76E7D4ED038AF5EEC08AF1EE10FA23
:1042C0000CD5DFED7C6A9FED7C7AF0EE687AF4EE37
:1042D000C77AF1EE10FA78EEA68AF6D49FED757AD9
:1042E000F4EEC78AF1EE10FA0ADBDFED746AF0EE45
:1042F000687AF4EEE67AF1EE10FA78EEC78AF6DA2A
:104300009FED730A28EE800A09F092F8714BDFEDF9
:104310006F7A9FED650A03EB8003E8EE278A93ED41
:10432000007AD4ED007AC4ED038A67EE877A27EE2F
:10433000800AC4ED077A34E7D4ED038AF5EEC08A2B
:10434000F1EE10FA0CD5DFED5B6A9FED5B7AF0EED3
:10435000687AF4EEC77AF1EE10FA78EEA68AF6D40F
:104360009FED547AF4EEC78AF1EE10FA0ADBDFED26
:10437000536AF0EE687AF4EEE67AF1EE10FA78EE2F
:10438000C78AF6DAB0EE680A09F002F8D4ED006ADE
:104390009FED4E7A60EE007A20EE260AE8EE078A5C
:1043A00020EE270AC4ED038A20EE270A84ED070ACF
:1043B000F7E6DFED494AB4EEE40AF1EE10FA40F117
:1043C0008181464946489FED475A424DDFED396AA3
:1043D0009FED3A6ADFED3E3A9FED3C4AF0EE405ADF
:1043E0000222F1EC017AF4EEE67AF1EE10FA08DB43
:1043F000B0EE677AB4EEC67AF1EE10FA77EEE67AAE
:10440000F6DA27EEA37AE5EE847A0B2ABCEEC77AB9
:10441000F0EC015A41ED017A17EE103A9BB205EB30
:104420008303D3ED007AA5EEA75A0BD007EE902AAE
:10443000F8EEE75A013265EE885AF4EEE45AF1EEEE
:1044400010FACED4284BD4ED007A93ED000A20EE7A
:10445000270A20EE050A84ED070AA2E6BDEC028BCE
:104460002248BDE8384080ED030AFDF781BDBDEC70
:10447000028B1F48BDE8384080ED030AFDF790B974
:10448000DFED090A9FED1B0A94ED008A00F068FA3F
:1044900028EE000A85E600BF9A9999999999E93F13
:1044A000F43D0010DC0A0010CDCC4C3F0000484326
:1044B00000001644DB0FC940DB0FC9C0DB0F4941C8
:1044C000DB0F494083F922BF83F9223F92651539FA
:1044D00083F9224390BE01080044AC46C03C001062
:1044E000EC3C001000000000E83C00102800001028
:1044F00080050010CDCC4CBFF7EE087A60EE277A2D
:10450000734B7448C3ED027AFFF734FC1846B0EEE3
:10451000405AFFF72FFC35EE000AF6EE007A20EE47
:10452000270A3EE69FED6C7A694A6C4B6948F7EEC4
:10453000087A28EE077A68EE277A82ED027AC3EDD0
:10454000027AFFF717FC1046B0EE405AFFF712FC54
:10455000184635EE005AFFF70DFCBDEC028BDFED7F
:10456000607A35EE000A20EE270A38BD9FED5D7AAD
:10457000DAE7FEF70BFFF7EE008A70EE287A544C6C
:1045800067EE887AC4ED027AFEF74EFF70EE287A65
:10459000524B504867EE887AC3ED027AFFF7EAFB88
:1045A0002046D1E7BDEC028BBDE83840FFF78ABC5E
:1045B000BDEC028BBDE83840FFF7C2B9B5EEC07A5A
:1045C000F1EE10FA0CD59FED486ADFED486AF0EE87
:1045D000477AF4EEE67AF1EE10FA37EE067AF6D480
:1045E000DFED416AB4EEE67AF1EE10FA0ADB9FEDF8
:1045F000406AF0EE477AF4EEC67AF1EE10FA37EE42
:10460000667AF6DADFED3B6AD4ED007AB4EEE67A4C
:10461000F1EE10FA3AD5DFED386A27EEA60A20EE61
:10462000070A20EE070A0AE6F1EE10FA0CD59FED14
:104630002E6ADFED2E6AF0EE477AF4EEE67AF1EEBE
:1046400010FA37EE067AF6D4DFED276AB4EEE67A92
:10465000F1EE10FA0ADB9FED266AF0EE477AF4EEEF
:10466000C67AF1EE10FA37EE667AF6DADFED216AF5
:10467000D4ED007AB4EEE67AF1EE10FA15D5DFED5E
:104680001F6A67EEA67A27EE870AD8E59FED1C6AB7
:10469000F8EE006AE7EE066ABEEE006A27EE860ACA
:1046A00020EE260A20EE260AC9E59FED156AF8EEEF
:1046B000006AE7EE066AB6EE006A67EE867A27EED3
:1046C000A60ABCE59FED0F5ABCE69FED0E0A68E511
:1046D000D43D0010F43D0010AE47A13FB43D0010A2
:1046E000C3F5A83EB537983FDB0FC940DB0FC9C003
:1046F000DB0F4941DB0F49407A814F3D83F9223E70
:1047000083F9A23E00000000094B0A490A4A1A60D8
:10471000DFF83CC0094AC1F800C0094809490A4B02
:10472000DFF830C01160094AC0F800C01A60704755
:1047300074EC012068EC01209A99993E6CEC012000
:1047400070EC01204CE59D3D60EC0120EA086F37DC
:104750003333333F939B143C07EE100A9FED076AF7
:10476000DFED077ADFED076A074BB8EEC77AE7EEB1
:10477000067A67EEA67AC3ED007A7047661E613D41
:104780000AD7A33C9265153960EC012007EE900A28
:104790009FED047A044BF8EEE77A67EE877AC3ED73
:1047A000007A7047FDE0003C68EC012007EE900ABB
:1047B0009FED047A044BF8EEE77A67EE877AC3ED53
:1047C000007A70470402013C74EC012010B5434CA0
:1047D000DFED437A434B2DED048BD4ED008A93ED4E
:1047E000008AB0EE409A28EEA70A08F021FE3E4A61
:1047F0003E4BD2ED007A3E4A3E49D2ED006A3E4A37
:1048000003EB800393ED007A3C4B77EEC87AF7EE2A
:10481000005AB6EE006A37EE257A67EE867AB7EE72
:10482000004AA7EE278A78EEA64A34EE487A38EE98
:10483000048ADFED336AC7EE087AF4EEE64AF1EE59
:1048400010FA93ED007A2F4BA8BF74EEE64AD2ED32
:10485000006A93ED005AD3ED015A93ED026AD3ED4D
:10486000053AC4ED004AB0EE493AA6EE873AD3EDD8
:10487000036A93ED047AD1ED004AA7EEC35A34EEF1
:10488000644AE7EEC55AA7EE853AA7EEE56AA7EEB9
:10489000A55AE7EEC66AE7EE865AA7EEE67AC3EDBA
:1048A000025AF0EE635AE7EEC75AA7EEA66A24EE64
:1048B000A50AE7EE876AA4EE090ABDEC048BA7EE11
:1048C000A57A83ED003A83ED015A83ED036AC3EDC7
:1048D000046AC2ED005A83ED057A10BD64EC012034
:1048E00083F9224370EC01206CEC012090BE01089A
:1048F00060EC012074EC01205CEC012068EC0120EC
:10490000DB0FC94078EC0120054A0649536B43F0A0
:10491000400353630A68136843F00403136070474D
:104920000038024090EC01200B4808B50B4B0360A7
:1049300005F082F930B9084805F094F9BDE808405F
:1049400007F06CBDFEF7ACFE034805F08BF9BDE83F
:10495000084007F063BD00BF90EC0120000806503E
:1049600008B52DED028BF0EE408AB0EE608A07F0BC
:1049700083FD78EE680AB0EE680ABDEC028B07EEA4
:10498000900A9FED047AF8EEE77A60EE870AA7EEC8
:10499000A00A08BD0000003008B507F06DFD07EE65
:1049A000900A9FED050AF8EEE77A27EE800A08F0F4
:1049B0003FFDC0B208BD00BF00007E330000000014
:1049C00038B510EE104A05462046FBF7DFFE15A36A
:1049D000D3E90023FBF7B0FF80B907EE104AF6EEEB
:1049E000007A67EE277A9FED0C0AC5ED017A27EE73
:1049F000800AFEF751FF85ED020A38BDDFED077A28
:104A00009FED070AC5ED017AFEF746FF85ED020A24
:104A100038BD00BFAFF30080DB0F49403333F33EB6
:104A20004302BF3F666666666666EE3F2DE9F84361
:104A30002DED028B9FED178A174CDFF86880174F1A
:104A4000C4F80C8000254FF00109B0EE480A4FF081
:104A5000785684F8009025616561A7616660FEF76D
:104A60001BFFF0EE407AC4ED027AE5610C4CB0EE2B
:104A7000480A84F8009025616561C4F80C80A7613C
:104A80006660FEF709FFBDEC028BE56184ED020A6A
:104A9000BDE8F883DB0FC93E343E0010CDCCCC3EE0
:104AA000143E00106666663F10B5DFED1B0A9FEDF1
:104AB0001B0A2DED028BFEF76BFEDFED197A194B09
:104AC00020EE278A83ED008A18EE100AFBF75EFEBF
:104AD0000FA3D3E90023FBF72FFF88B9F6EE007A86
:104AE00028EE278A9FED100A28EE000A0F4C84ED6D
:104AF000018AFEF7D1FEBDEC028B84ED020A10BDE7
:104B00009FED0B0A9FED0B8AF0E700BFAFF300802B
:104B1000666666666666EE3F0000FA450000A042E3
:104B2000C637BE379CEC0120DB0F4940343E0010F5
:104B30004302BF3F3333F33E07EE900A9FED0A7AFC
:104B40000A4BF8EEE77AF4EEC77AF1EE10FAD7BF27
:104B5000DFED076A9FED077AB7EE007AA7EEE67AF7
:104B600083ED037A704700BFC375FB42343E0010EB
:104B70000402013C0AD7233C07EE900AF8EEE77ADC
:104B80009FED047A044B67EEA77A67EE877AC3ED50
:104B9000067A70471809C339343E001000EB8000D4
:104BA00007EE900AB8EEE70ADFED047A08B520EECA
:104BB000270A08F03DFC024B187008BD0402013CB6
:104BC000343E00100000000010B5DFED1B0A9FED21
:104BD0001B0A2DED028BFEF7DBFDDFED197A194B79
:104BE00020EE278A83ED008A18EE100AFBF7CEFD2F
:104BF0000FA3D3E90023FBF79FFE88B9F6EE007AF6
:104C000028EE278A9FED100A28EE000A0F4C84ED4B
:104C1000018AFEF741FEBDEC028B84ED020A10BD55
:104C20009FED0B0A9FED0B8AF0E700BFAFF300800A
:104C3000666666666666EE3F0000FA450000A042C2
:104C4000C637BE3798EC0120DB0F4940143E0010F8
:104C50004302BF3F3333F33E07EE900A9FED0A7ADB
:104C60000A4BF8EEE77AF4EEC77AF1EE10FAD7BF06
:104C7000DFED076A9FED077AB7EE007AA7EEE67AD6
:104C800083ED037A704700BFC375FB42143E0010EA
:104C90000402013C0AD7233C07EE900AF8EEE77ABB
:104CA0009FED047A044B67EEA77A67EE877AC3ED2F
:104CB000067A70471809C339143E001000EB8000D3
:104CC00007EE900AB8EEE70ADFED047A08B520EEA9
:104CD000270A08F0ADFB024B187008BD0402013C26
:104CE000143E001010B590ED017ADFED687A2DEDDD
:104CF0000C8BB0EE408A90ED060AD0ED02BAB4EE0D
:104D0000E77A0446F1EE10FA28EE000A4CBFD0ED27
:104D1000039AF7EE009AFEF79BFDD4ED047A94ED2A
:104D2000077AD4ED056A84ED070A77EEA77A30EEAC
:104D3000077A69EEE77AB6EE009AE7EE097AB0EE06
:104D400040BA77EEE67A3BEEABCA27EE890AFEF769
:104D500037FDD4ED047AF0EE40AA27EE890AFEF77B
:104D60002FFD29EEAAAAB7EE007AF0EE476AEAEE26
:104D70000C6AD4ED045AC7EE26CA2BEEA56A6BEE78
:104D8000AB7A26EE006A67EEAA7AD4ED056A67EE82
:104D9000807AECEE866A67EEAC7AB0EE409AEBEE83
:104DA000276A37EE877AB0EE650AC6EE87DAFEF735
:104DB0004FFD3AEE0AAA3BEE6DDA29EE0C9A6DEE43
:104DC0002AAAABEEAA0AF0EE408A68EEAC8A94ED0D
:104DD000040AE8EECAAAFEF73BFDD4ED057A237873
:104DE000E8EE897A013BAAEE8C0AB1EE687AC4ED4E
:104DF000057A84ED040A042B0AD8DFE803F0032DBA
:104E0000363B1E00B0EE6D0AFEF7FAFCB0EE408AAB
:104E1000F7EE007AB4EEE78AF1EE10FA88BFB0EE52
:104E2000678ABFEE000AB4EEC08AF1EE10FAA8BF9E
:104E3000B0EE480ABDEC0C8B10BDF0EE007AB0EE7F
:104E40004B0A9DEEA70A79EEA99A9FED118AA8EE6A
:104E5000A90A20EE088ADBE779EEA99A9FED0C8A71
:104E6000A7EE29DA2DEE088AD2E79FED098A28EE0F
:104E7000888ACDE779EEA99AB0EE4B8AA7EE298A07
:104E8000DFED037A28EE278AC2E700BF4B59E63EE2
:104E9000AE47613F07EE100ADFED096A9FED090A90
:104EA000B8EEC77AF3EE047AE7EE267A10B5064C30
:104EB00080EE270AC4ED107A08F0BAFA606410BDDB
:104EC0002693C940C07F214A683E001007EE900A31
:104ED000094BDFED0A6A9FED0A7AF8EEE77AA7EE52
:104EE000A67AD3ED117AF8EEE77A67EE877AFDEECF
:104EF000E77AC3ED147A7047683E00109F69CE3B95
:104F0000CDCCCC3D7F2904BF014B9881704700BFB9
:104F1000543E001000B507EE900A9FED0E0AF8EE21
:104F2000E77A83B027EE800A08F006FBFCEEC07A31
:104F3000094ACDED017A9DF8043013800D2B96BF00
:104F40000649074951F8231051600123137403B037
:104F50005DF804FB87C3E13D543E001058BE0108D4
:104F600060BC01083F28034B94BF002001209873C8
:104F7000704700BF543E001030B17F2800D070470A
:104F8000034B01225A747047014B5874704700BF9D
:104F9000543E001007EE900A9FED097A094AF8EE98
:104FA000E77A82B067EE877A0123FCEEE77A137422
:104FB000CDED017A9DF80430138102B0704700BF37
:104FC0000402813D543E0010F8B5204F204D2DEDD8
:104FD000028B9FED208A07F120066C68237800EE93
:104FE000903AB7EE000AF8EE600AFFF7B9FC08F055
:104FF0001FFAB5F90830245C00EE903AB0EE480A8A
:10500000F8EEE00AFFF7ACFC08F012FA6B8900EB4F
:105010004000153B03EB800323441BB26A2B0DDDDC
:105020000C3B9AB26A2A1BB2FAD827F8023FBE425A
:10503000D3D1BDEC028BF8BD0C331BB2002BFBDBD4
:1050400027F8023FBE42C8D1F3E700BF663E00101A
:10505000543E00100000000010B4104C1049B4F889
:105060000CC001F1200031F8023F63441BB26A2BEF
:105070000EDD0C3B9AB26A2A1BB2FAD888420B802A
:10508000F1D10023A3815DF8044B70470C331BB2B0
:10509000002BFBDB88420B80E5D1F2E7543E001089
:1050A000663E001010B50D4C0D4B9FED0E0A2364AB
:1050B00008F0BEF9002241100B4B2165C4E9110232
:1050C0000A490B48A4F84C20BDE81040C3E9011080
:1050D0009A81C3F80E201A80FFF776BF683E001051
:1050E0000000A04300330146543E00104CBC0108B0
:1050F0000400240010B50D4CA36C5A1E002BA264B2
:1051000000DD10BDB4F94C306BB100F00FFBB4F80A
:105110004C30626CA26401331BB20F2BC8BF00235A
:10512000A4F84C3010BD00F0C9FBEEE7683E00105B
:10513000014B1870704700BFC83E00107F2800D098
:105140007047054B93F9002012B901221A7070477D
:1051500000221A70704700BFC83E00107F2800D0A0
:105160007047054B93F9002012B902221A7070475C
:1051700000221A70704700BFC83E0010014B18781B
:10518000704700BFBC3E00107F2804D1024A13784C
:1051900083F00103137070470D0000207F2800D0BA
:1051A00070470B4A08B5137883F00103137023B1DD
:1051B000BDE80840022001F007B90648FCF700F8F6
:1051C000FBF744FDBDE80840022001F0FDB800BF38
:1051D0000C0000200000001007EE900A9FED047AFA
:1051E000044BF8EEE77A67EE877AC3ED007A7047F2
:1051F0000402013C143D001007EE900A9FED047A72
:10520000044BF8EEE77A67EE877AC3ED027A7047CF
:105210000683C13D143D001007EE900A9FED047A0D
:10522000044BF8EEE77A67EE877AC3ED007A7047B1
:105230000402813E543D001007EE900A9FED047A6F
:10524000044BF8EEE77A67EE877AC3ED027A70478F
:105250000683C13D543D001007EE900A9FED047A8D
:10526000044BF8EEE77A67EE877AC3ED007A704771
:105270000402813E343D001007EE900A9FED047A4F
:10528000044BF8EEE77A67EE877AC3ED027A70474F
:105290000683C13D343D001007EE900A9FED047A6D
:1052A000044BF8EEE77A67EE877AC3ED007A704731
:1052B0000402813B743D001007EE900A9FED047AD2
:1052C000044BF8EEE77A67EE877AC3ED027A70470F
:1052D0000683C13D743D001010B4C8B17F2802D0D0
:1052E0005DF8044B7047194A194B546819481A491C
:1052F00014605C68194A1C604468194B04608C682F
:105300004C60906899685DF8044B50605960704734
:105310000E4C0F490F4AD4F800C0C4F804C0002353
:1053200023600C680C484C60146854600B60136078
:105330000A490B4A4468846043604C6850688C603A
:105340004B605DF8044B906053607047F43D001073
:10535000D43D0010B43D0010DC0A001080050010A0
:105360002800001007EE900AF8EEE77A9FED0D7A1C
:105370000D4B0E480E490F4A67EEA77A10B467EE40
:10538000877A0D4CC3ED007A0C4BC4ED007AC0ED6A
:10539000007A5DF8044BC1ED017AC2ED017AC3EDEC
:1053A000017A70477929CB3AD43D0010B43D001002
:1053B000DC0A001080050010F43D001028000010E9
:1053C0003F28044B02D901221A70704700221A703C
:1053D000FDF732BECB3E00103F28034B94BF0020A8
:1053E00001201870704700BFCC3E00103F28034BCF
:1053F00094BF002001201870704700BFC93E001004
:105400003F28034B94BF002001201870704700BF55
:10541000CA3E001000B507EE900A9FED0D0AF8EEA7
:10542000E77A83B027EE800A08F086F8FCEEC07AAF
:10543000084ACDED017A9DF804301370042B02D197
:1054400003B05DF804FB03B05DF804EBFEF740BE6B
:10545000C8E3F13DBC3E001001460148FEF752BAD8
:10546000F43D001001460148FEF75ABAF43D001021
:1054700008B5DFED050A9FED050AFEF789F9044B33
:1054800083ED060A08BD00BF00000042CDCC4C3EB3
:10549000D43D00107F2808D1044B9FED057AD3ED51
:1054A000067A67EE877AC3ED067A7047D43D00101E
:1054B000AE47813F7F2808D1044B9FED057AD3ED9D
:1054C000067A67EE877AC3ED067A7047D43D0010FE
:1054D000A4707D3F01460148FEF722BAD43D00107A
:1054E00008B5DFED050A9FED050AFEF751F9044BFB
:1054F00083ED060A08BD00BF00000042CDCC4C3E43
:10550000B43D001001460148FEF70ABAB43D001050
:105510007F2808D1044B9FED057AD3ED067A67EE1C
:10552000877AC3ED067A7047B43D0010AE47813FDD
:105530007F2808D1044B9FED057AD3ED067A67EEFC
:10554000877AC3ED067A7047B43D0010A4707D3FA2
:1055500008B5DFED050A9FED050AFEF719F9044BC2
:1055600083ED060A08BD00BF00000042CDCC4C3ED2
:10557000943D001001460148FEF7D2B9943D001059
:105580007F2808D1044B9FED057AD3ED067A67EEAC
:10559000877AC3ED067A7047943D0010AE47813F8D
:1055A0007F2808D1044B9FED057AD3ED067A67EE8C
:1055B000877AC3ED067A7047943D0010A4707D3F52
:1055C00038B53B493B4A3C483C4D3D4C4FF07E5C36
:1055D00000232DED028BC1F800C0137039493A4AFF
:1055E0002B70237003700B701370DFED388A9FED02
:1055F000388AFDF709FDFDF765FFFFF753FD3548D4
:10560000FBF7BCFDFDF74EF9FFF77EF8FFF70EFA4A
:105610003149324A32484FF07A53F0EE680AB0EE20
:10562000480A0B601360FEF74FF9F0EE680AB0EE1F
:10563000480A2C48FEF748F9F0EE680AB0EE480A2E
:105640002948FEF741F9B0EE480A9FED288A28481C
:10565000F0EE680AFEF738F9B0EE480A2548F1EE98
:10566000060AFEF731F9F0EE480AB0EE480A224881
:10567000FEF72AF9F0EE480AB0EE480A1F48FEF796
:1056800023F9F0EE480AB0EE480A1D48FEF71CF96F
:10569000FEF71EFD1B48FBF7BDFE1B48FCF768F834
:1056A000BDEC028B1948BDE83840FCF747BC00BF91
:1056B000C03E0010CC3E0010C93E0010BC3E0010A1
:1056C000C83E0010CB3E0010CA3E001000C012447D
:1056D000CDCC4C3F000000109CEC012098EC012048
:1056E000F43D0010D43D0010B43D00100000000057
:1056F000943D0010743D0010543D0010343D0010E6
:10570000143D0010DC0A0010800500102800001075
:105710007F2800D070470349034A00230B701370A1
:10572000FFF74EBF0D00002040E6012010B5544C9D
:10573000A37B002B37D1237C002B34D1637C63B156
:10574000F7EE000A9FED4F0AFFF70AF907F0F4FEA3
:10575000B5EE400AF1EE10FA6ED04B48FBF726FD8D
:105760004A4B1B78002B3ED1B4F90C3013BB484C8C
:1057700094F90030012B27D0022B48D0454A464BE4
:10578000B2F94C00454932F91020DFED450A9FED92
:105790003D0A03EB82031B680B60FFF7E1F8414B06
:1057A00083ED000A10BDFFF70FFC00232374FEF702
:1057B0008FFCC3E7628913446381354CFFF74CFCCF
:1057C00094F90030012BD7D106F056FE434203F086
:1057D000030300F0030058BF584203284DD8DFE808
:1057E00000F0383E4632F7EE000A9FED2F0AFFF731
:1057F000B7F8F0EE400A9FED2D0A07F071FDDFEDDE
:105800002C7A2C4820EE270AFFF7DAF8ACE706F0EE
:1058100033FE434203F00F0300F00F0058BF58421D
:10582000C0B2254BA0F10A02012A187008D9042839
:10583000A4D1FEF74DFCA1E71348FBF7C1FC8FE7AD
:105840000C221A709AE71C4A94F900300C2111704E
:1058500092E7194A94F90030092111708CE7FEF79C
:1058600037FC154A94F900300421117084E7124A7C
:1058700094F900300B2111707EE794F900307BE73A
:10588000543E0010CDCCCC3E00000010CC3E0010A9
:10589000C83E0010683E0010ACBC0108C43E0010B9
:1058A000CDCC4C3FC03E00100000000055550541D6
:1058B0005CE95E3C343E0010BC3E001008B5074B6E
:1058C0001B7813B1064B1B7803B108BD7F20FBF793
:1058D000B7F9BDE808407F20FBF7ACB90D00002008
:1058E00040E60120002900F0FE802DE9F04F2DED6B
:1058F000068B01317C4D7D4F7D4EDFED7E9A9FED15
:105900007E9ADFF838B2DFF828A2DFF8349283B04D
:10591000041D00EB8108A8E0784B794A93F9003028
:1059200007EE903A774B93F90030F8EEE77A02EB06
:10593000830367EEA97A1B68C6ED007A3B60724864
:10594000FEF76CF9B7EE00AAD7ED007A9BF80000DD
:1059500030EE0A0A20EE270AFEF7F6FB6B48F0EE5F
:10596000408AFBF7ABFC6A48B0EE408AFEF756F976
:1059700028EE288AD6ED007A2B7870EE0A8A28EE77
:10598000278A68EE888A33B1624B604A1B6D526A7F
:105990009A4280F09F80604B1B7843B95F48D0EDFE
:1059A000007AF5EE407AF1EE10FA40F08480DAEDFC
:1059B000007AF5EE407AF1EE10FA6CD15848B0EE6C
:1059C000680AFFF78FF94846B0EE408AB0EE680AE1
:1059D000FFF788F9534B38EE000A1B78F6EE007A91
:1059E00020EE270A002B53D14F4B1B78002B4CD1B4
:1059F0004E4B1B78002B3FD1F0EE407AF7EE006A59
:105A0000B4EEE60AF1EE10FABFEE007A88BFB0EE0F
:105A1000660AB4EEC70AF1EE10FAF4EEE67AB8BF01
:105A2000B0EE470AF1EE10FA88BFF0EE667AF4EEB7
:105A3000C77AF1EE10FA60EE096AB8BFF0EE477A65
:105A400027EE897AFDEEE66ABDEEC77A16EE903A49
:105A500024F8043C17EE103A043424F8063C44457C
:105A60008DED000ACDED017A38D02B78002B3FF474
:105A700053AFFFF73FFB62E701A96846FDF7FAF96C
:105A80009DED000ADDED017AB8E7FEF79FFEAFE776
:105A9000FDF766FBA8E72648FEF712F9254BF7EE5F
:105AA000007A30EE270AD3ED007A484620EE270A26
:105AB000FEF786FF82E7FEF703F91F4B1848F7EE63
:105AC000007A30EE270AD3ED007A20EE270AFEF79F
:105AD00077FF6CE70D48FBF773FB5CE703B0BDECA9
